S0120000746573745F616761696E2E73726563F3
S11300000C9433000C9450000C9450000C94500049
S11300100C9450000C9450000C9450000C949A02D0
S11300200C9450000C9450000C9450000C9450000C
S11300300C9450000C9450000C9450000C945000FC
S11300400C9450000C9450000C9450000C945000EC
S11300500C9450001C0E1C0E4B0E500E660E1C0E03
S11300601C0E4B0E500E11241FBECFE5D8E0DEBF90
S1130070CDBF10E0A0E6B0E0ECE6F7E202C00590E8
S11300800D92A23DB107D9F727E0A2EDB0E001C07F
S11300901D92AE34B207E1F70E9429100C94B413F8
S11300A00C9400000E943F138091610090E00E9434
S11300B0FF0AF8CF0E945F13FDCF8091D700811112
S11300C009C081E00E94C0118091D7008F5F8093A6
S11300D0D700089588EC0E94C0111092D7000895AB
S11300E08091D600811109C081E00E947D11809128
S11300F0D6008F5F8093D600089588EC0E947D110E
S11301001092D60008950E94C2110E94AA0F0E9464
S1130110C70F0895EF92FF920F931F930F2EF4EDE4
S1130120EF2EF0E0FF2EF02D02E020E030E048EC6E
S113013050E061E870E082E590E00E9474080F2EC0
S1130140F2EDEF2EF0E0FF2EF02D01E020E030E0A4
S113015048EC50E06EE870E08AE590E00E94740894
S11301606091600070E00DE510E020E030E041E0D7
S113017082EA90E00E94170F909348078093470704
S11301806091600070E000E710E020E030E041E0C2
S113019084EB90E00E94170F9093460780934507E5
S11301A00E94CD081F910F91FF90EF900895FC01DC
S11301B00396928381832FEF3FEF348323839683C7
S11301C085839087878310820895FC0111861086A9
S11301D00895CF93DF93EB01488159814F3F2FEF6F
S11301E0520721F4FC01A781B0850DC0DC011396F0
S11301F001C0DF011296ED91FC91139720813181AA
S113020042175307B0F71296ED91FC911397FB83B5
S1130210EA83D583C483BD83AC831396DC93CE93E6
S1130220129799878887FC0120812F5F2083DF91B3
S1130230CF910895CF93DF93FC01A085B185C2814E
S1130240D381848195819D838C83C481D58182816E
S113025093819B838A8311968D919C911297E817C1
S1130260F90731F48481958112969C938E931197AA
S1130270118610868C9181508C938C91DF91CF9153
S113028008951BBC8CE78ABD8BE08EBD89B7806165
S113029089BF089531E1FC013083319722E2208344
S11302A03197A3E3A08331976083319770833197AB
S11302B01082319760E8608331971082319762E051
S11302C06083319763E06083319764E060833197A2
S11302D065E06083319766E06083319767E060830F
S11302E0319768E06083319769E06083319760E11A
S11302F0608331973083319732E13083319733E132
S11303003083319734E13083319735E1308331974D
S113031036E13083319737E13083319738E13083E8
S1130320319739E13083319730E23083319731E2CC
S1130330308331972083319723E2208331974083A0
S113034031975083319726E22083319727E2208327
S1130350319728E22083319729E22083319720E3E3
S11303602083319721E32083869708950E944101D9
S1130370A0911E07B0911F07CD91CDBFDD91DEBFC7
S1130380FF91EF91DF91CF91BF91AF919F918F91A9
S11303907F916F915F914F913F912F911F910F9199
S11303A0FF90EF90DF90CF90BF90AF909F908F9091
S11303B07F906F905F904F903F902F901F900F9081
S11303C00FBE0F90089581E008950F920FB6F89430
S11303D00F921F9211242F923F924F925F926F922D
S11303E07F928F929F92AF92BF92CF92DF92EF92C1
S11303F0FF920F931F932F933F934F935F936F93AA
S11304007F938F939F93AF93BF93CF93DF93EF9398
S1130410FF93A0911E07B0911F070DB60D920EB663
S11304200D920E94150BA0911E07B0911F07CD914C
S1130430CDBFDD91DEBFFF91EF91DF91CF91BF91F1
S1130440AF919F918F917F916F915F914F913F9168
S11304502F911F910F91FF90EF90DF90CF90BF905D
S1130460AF909F908F907F906F905F904F903F9050
S11304702F901F900F900FBE0F9008950F920FB6FC
S1130480F8940F921F9211242F923F924F925F92F1
S11304906F927F928F929F92AF92BF92CF92DF9290
S11304A0EF92FF920F931F932F933F934F935F937A
S11304B06F937F938F939F93AF93BF93CF93DF9368
S11304C0EF93FF93A0911E07B0911F070DB60D92F5
S11304D00EB60D920E94100981110E94150BA09175
S11304E01E07B0911F07CD91CDBFDD91DEBFFF91F7
S11304F0EF91DF91CF91BF91AF919F918F917F91B8
S11305006F915F914F913F912F911F910F91FF90A8
S1130510EF90DF90CF90BF90AF909F908F907F909F
S11305206F905F904F903F902F901F900F900FBE51
S11305300F9008950E943E021895E2EEF0E0A6EEB8
S1130540B0E0B183A08313821282EEEBF6E0F09365
S1130550E100E093E000138212821182108288EDA0
S113056095E013969C938E931297ED93FC9390933E
S1130570DD008093DC009093DF008093DE0008951B
S1130580CF93DF93EC01A2EEB0E001C0DF01ED9167
S1130590FC911197EC17FD07C8F312968D919C916D
S11305A013979D01280F391FC217D30749F42A81D5
S11305B03B81820F931F13969C938E931297ED01A8
S11305C08A819B819E01280F391FE217F307C1F42A
S11305D02091E0003091E100E217F30771F02281ED
S11305E03381820F931F9B838A83ED91FC91119732
S11305F0808191819983888305C03983288302C0CF
S1130600F983E883CA17DB0711F0CD93DC93DF91FC
S1130610CF910895EF92FF920F931F93CF93DF939F
S11306208C010E94FD088091E0009091E100892BEB
S113063011F40E949D020115110549F00B3F8FEF43
S1130640180718F40B5F1F4F02C000E010E01123DD
S11306500CF466C00115110509F465C08091DE0033
S11306609091DF008017910708F460C0C091E20008
S1130670D091E300E2EEF0E002C0FE01EC018A81D9
S11306809B818017910720F4888199810097A9F7AD
S11306908091E0009091E100C817D90709F449C09E
S11306A0E080F18084E0E80EF11C888199819183D7
S11306B080832A813B81201B310B2930310550F086
S11306C0CE01800F911FFC01338322831B830A8395
S11306D00E94C0022A813B818091DE009091DF005C
S11306E0821B930B9093DF008093DE004091DC002B
S11306F05091DD008417950720F49093DD008093DA
S1130700DC0030683B832A83198218828091DA00E6
S11307109091DB0001969093DB008093DA000BC08C
S1130720E12CF12C08C0E12CF12C05C0E12CF12CBA
S113073002C0E12CF12C0E942A0AC701DF91CF915B
S11307401F910F91FF90EF9008950F931F93CF93F4
S1130750DF93009749F1EC0124972A813B813323ED
S11307601CF548815981452BF9F43F773B832A8353
S11307700E94FD088A819B812091DE003091DF0078
S1130780820F931F9093DF008093DE00CE010E94BE
S1130790C0028091D8009091D90001969093D9001D
S11307A08093D8000E942A0ADF91CF911F910F9164
S11307B008950FB6F8940F92FC01828D811102C046
S11307C081E001C080E00F900FBE08950FB6F89449
S11307D00F92FC01228D838D281302C081E001C099
S11307E080E00F900FBE08950F931F93CF93DF9374
S11307F0EC01042F1A8D4C8D4423B9F1011116C05C
S113080050E08A819B810E94AB132C8D8A819B814D
S1130810820F911D9B838A832C813D8182179307CC
S113082020F1888199819B838A831FC050E08E8147
S11308309F810E94AB138C8D90E0919581959109D5
S11308402E813F81280F391F3F832E834881598190
S11308502417350730F42C813D81820F931F9F8329
S11308608E83023011F4111111501F5F1A8F80E032
S1130870DF91CF911F910F910895FC01448D442382
S1130880A9F050E026813781240F351F3783268352
S1130890848195812817390720F08081918197837D
S11308A08683CB01668177810E94AB1308951F93E1
S11308B0CF93DF93EC010FB6F8940F921E8D0BC00B
S11308C08989882351F0CE0141960E94C40B81117D
S11308D00E94BE0C115011169CF38FEF8E8F0F9057
S11308E00FBE0FB6F8940F921D8D0BC08885882318
S11308F051F0CE0108960E94C40B81110E94BE0CD7
S1130900115011169CF38FEF8D8F0F900FBEDF9156
S1130910CF911F9108950F931F93CF93DF93FC0101
S1130920362F892B09F44DC0238D222309F44BC0A3
S1130930022F10E08FEF9FEFB8010E947D13448DCA
S1130940842F90E06817790708F43FC0EF010FB6D1
S1130950F8940F9260817181FB01249FE00DF11DD9
S11309601124FD83EC831A8E7B836A830150110961
S1130970809FA001819F500D909F500D1124CB01A9
S1130980840F951F9F838E838FEF8D8F8E8F3111F0
S11309900CC08885882389F0CE0108960E94C40B78
S11309A0882359F00E94E50108C0CE0108960E94F0
S11309B0D700CE0141960E94D7000F900FBE81E070
S11309C005C080E003C080E001C080E0DF91CF91EA
S11309D01F910F9108950F931F93F801611103C0A4
S11309E01183008302C051834083838F648F61E04D
S11309F0CF010E948B041F910F910895DF92EF9213
S1130A00FF920F931F93CF93DF93382FE62F882302
S1130A1029F1682F70E08FEF9FEF0E947D138E2FD6
S1130A2090E068177907E8F03E9FC0011124813EE9
S1130A302FEF9207C8F4D42EDE2FC32F4F960E94B7
S1130A400A037C01009791F08C012D2DAC01415ECD
S1130A505F4F6D2F8C2F0E94EB0408C0E12CF12C0A
S1130A6005C0E12CF12C02C0E12CF12CC701DF916F
S1130A70CF911F910F91FF90EF90DF900895CF9247
S1130A80DF92EF92FF920F931F93CF93DF9300D0E7
S1130A9000D01F92CDB7DEB78C017B015D834C8300
S1130AA0C22ED12C0FB6F8940F92F801928D838D3B
S1130AB0981718F0F2E0CF1219C04C2DB701C801F5
S1130AC00E94F403F8019189992349F0C8014196E1
S1130AD00E94C40B882331F00E94E50103C08111F8
S1130AE00E94E5010F900FBE81E04DC08C819D8175
S1130AF0892B21F40F900FBE80E045C0D11006C0B1
S1130B00CE0101960E94810CDD24D3940F900FBE78
S1130B100E94FD080FB6F8940F92F801858D8F3F5F
S1130B2009F4158EF801868D8F3F09F4168E0F9007
S1130B300FBEBE016C5F7F4FCE0101960E948C0CEC
S1130B4081111BC0C8010E94E603882381F06C81D7
S1130B507D81C80108960E94690BC8010E94570450
S1130B600E942A0A81119ECF0E94E5019BCFC801F1
S1130B700E9457040E942A0A95CFC8010E94570474
S1130B800E942A0A80E00F900F900F900F900F9010
S1130B90DF91CF911F910F91FF90EF90DF90CF9055
S1130BA00895EF92FF920F931F93CF93DF938A01DF
S1130BB0FC01528D338D531710F0223021F5422F52
S1130BC07801EC011E8D8A8DCE010E94F4031F3F33
S1130BD081F489898823C9F0CE0141960E94C40B0F
S1130BE08823A9F0E114F104A1F081E0F7018083E6
S1130BF013C00E940D09181770F4FF24F394F10E2A
S1130C00FE8E81E009C080E007C081E005C081E07C
S1130C1003C081E001C081E0DF91CF911F910F916A
S1130C20FF90EF900895CF92DF92EF92FF920F938F
S1130C301F93CF93DF9300D000D01F92CDB7DEB7C0
S1130C408C016B015D834C83E12C0FB6F8940F92F9
S1130C50F801F28CFF20A9F0B601C8010E943D04FE
S1130C60FA94F801F28E8085882339F0C801089639
S1130C700E94C40B81110E94E5010F900FBE81E018
S1130C8053C08C819D81892B21F40F900FBE80E08D
S1130C904BC0E11006C0CE0101960E94810CEE24E7
S1130CA0E3940F900FBE0E94FD080FB6F8940F92C4
S1130CB0F801858D8F3F09F4158EF801868D8F3FDD
S1130CC009F4168E0F900FBEBE016C5F7F4FCE01EC
S1130CD001960E948C0C81111BC0C8010E94D9038B
S1130CE0882381F06C817D81C80141960E94690B43
S1130CF0C8010E9457040E942A0A8111A6CF0E94AB
S1130D00E501A3CFC8010E9457040E942A0A9DCF7F
S1130D10C8010E9457040E942A0AC8010E94D903EC
S1130D20882309F492CF80E00F900F900F900F90DA
S1130D300F90DF91CF911F910F91FF90EF90DF9073
S1130D40CF900895CF93DF93EC010FB6F8940F92F0
S1130D508D8D8F3F09F41D8E8E8D8F3F09F41E8E6D
S1130D600F900FBE8A8D811104C0CE0141960E945E
S1130D707B0BCE010E945704DF91CF910895E0913F
S1130D80E606F091E7068081811107C08FEF9FEF9F
S1130D909093C6068093C5060895E091E606F09107
S1130DA0E7060580F681E02D808191819093C60647
S1130DB08093C5060895CF93DF93EC018F89988DB6
S1130DC00E94A503CE010E94A503DF91CF9108954F
S1130DD06F927F928F929F92AF92BF92CF92DF9247
S1130DE0EF920F931F93CF93DF93CDB7DEB74C01F0
S1130DF0F5018789908D215031093C01620E731EE3
S1130E006115710589F415C0822F90E0FB01E80F8C
S1130E10F91F3081D501A80FB91F59963C938081E1
S1130E20882329F02F5F01C020E0283068F3F50102
S1130E3010A2F3E0FE1520F40F2EF3E0EF2EF02DB8
S1130E40F501E68AC50102960E94E500C5010C96EB
S1130E500E94E500F501B186A08684E090E08E1939
S1130E60910995878487B38AA28AA801B401C30132
S1130E700E944A01F50191838083C114D10419F0C1
S1130E80F601B182A082DF91CF911F910F91EF9073
S1130E90DF90CF90BF90AF909F908F907F906F9096
S1130EA00895CF93C0E010C08C2F90E09C01220FD6
S1130EB0331F220F331F220F331F820F931F8650BD
S1130EC0994F0E94D700CF5FC43070F381EF96E052
S1130ED00E94D70088EE96E00E94D7008BED96E042
S1130EE00E94D70082ED96E00E94D70081EF96E041
S1130EF09093E7068093E60688EE96E09093E506E5
S1130F008093E406CF910895CF93DF93EC010FB65D
S1130F10F8940F928091D0068F5F8093D0068091D1
S1130F201E0790911F07892B59F4D0931F07C09374
S1130F301E078091D006813099F40E94510710C099
S1130F408091CC0681110CC0E0911E07F0911F071F
S1130F5096898E89891720F0D0931F07C0931E07A6
S1130F608091C7068F5F8093C7068E899091CD06C6
S1130F70981710F48093CD0690E0FC01EE0FFF1F4C
S1130F80EE0FFF1FEE0FFF1F8E0F9F1FFC01E65099
S1130F90F94F0180F281E02DFD83EC8384819581FA
S1130FA09F838E83A481B581CE01029613969C9370
S1130FB08E93129795838483EE89F0E0CF01880F96
S1130FC0991F880F991F880F991FE80FF91FE65082
S1130FD0F94FFB87EA8780818F5F80830F900FBE74
S1130FE08091CC06882351F0E0911E07F0911F07F1
S1130FF096898E89981710F40E94E501DF91CF91AC
S11310000895CF93DF931CC00FB6F8940F92E0912C
S1131010D706F091D806C681D781CE0102960E94E8
S11310201A018091D00681508093D0068091D10618
S113103081508093D1060F900FBECE010E94DB0633
S11310408091D1068111E0CFDF91CF9108950E9464
S113105001088091FA068230D0F30E94E501F7CFAF
S11310600F931F93CF93DF93EC010091CE06109161
S1131070CF0680911E0790911F0702960E941A01C5
S1131080C00FD11FE0911E07F0911F07D383C283C5
S1131090C017D10768F460911E0770911F078091F3
S11310A0E4069091E5066E5F7F4F0E94E90017C049
S11310B060911E0770911F078091E6069091E706E4
S11310C06E5F7F4F0E94E9008091C5069091C6062D
S11310D0C817D90720F4D093C606C093C506DF917C
S11310E0CF911F910F9108952F923F924F925F924B
S11310F06F927F928F929F92AF92BF92CF92DF9224
S1131100EF92FF920F931F93CF93DF933C011B0148
S11311105A012901CA010E940A036C01892B99F022
S113112086E290E00E940A03EC01892B41F086E2FA
S1131130FE0111928A95E9F7D88ECF8A06C0C601BE
S11311400E94A50302C0C0E0D0E0209791F0950171
S113115040E050E0812C912C5E016701E02E820179
S1131160B101C3010E94E806CE010E94840781E018
S113117001C08FEFDF91CF911F910F91FF90EF90FE
S1131180DF90CF90BF90AF909F908F907F906F90A3
S11311905F904F903F902F900895EF92FF920F939E
S11311A00F2EF3ECEF2EF6E0FF2EF02D00E020E002
S11311B030E045E550E065EC70E087E298E00E949D
S11311C07408813011F40E94F50E813081F4F89492
S11311D08FEF9FEF9093C6068093C50681E08093BE
S11311E0CC061092CF061092CE060E94B6018091D2
S11311F062000F91FF90EF9008958091C2068F5F77
S11312008093C20608950FB6F8940F928091CE068B
S11312109091CF060F900FBE08958091D006089547
S11312200F931F93CF93DF938091C206811101C165
S1131230C091CE06D091CF068E010F5F1F4F109341
S1131240CF060093CE0601151105B9F48091E60688
S11312509091E7062091E4063091E5063093E70685
S11312602093E6069093E5068093E4068091C806F1
S11312708F5F8093C8060E94BF068091C506909137
S1131280C6060817190720F480E0B8C081E001C041
S113129080E0E091E606F091E7069081911107C0A5
S11312A02FEF3FEF3093C6062093C506A7C0E09109
S11312B0E606F091E7060580F681E02D0680F781C9
S11312C0E02D228133810217130728F43093C606D8
S11312D02093C50693C0A285B385248135814681B8
S11312E05781E9015D834C8326813781448155818F
S11312F0E9015B834A8311962D913C911297AF01CA
S11313004E5F5F4F2417350731F4268137811296DB
S11313103C932E931197138612869C9191509C9323
S1131320A489B589109719F1268537856089718953
S1131330E9017D836C832089318966857785E9019C
S11313407B836A8311966D917C9112979F01245F30
S11313503F4F6217730731F42089318912963C9309
S11313602E931197158A148A9C9191509C932689E7
S11313709091CD06921710F42093CD0630E0D90158
S1131380AA0FBB1FAA0FBB1FAA0FBB1F2A0F3B1F0D
S1131390D901A650B94F11960D90BC91A02DB583DB
S11313A0A48314962D913C91159737832683149624
S11313B02D913C911597E9015B834A8315965C93C3
S11313C04E931497A689B0E09D01220F331F220F7C
S11313D0331F220F331FA20FB31FA650B94FB38779
S11313E0A2879C919F5F9C932689E0911E07F091B0
S11313F01F079689921708F449CF4BCFE0911E0737
S1131400F0911F07268930E0F901EE0FFF1FEE0F60
S1131410FF1FEE0FFF1F2E0F3F1FF901E650F94F7C
S11314209081923008F081E09091C90691110CC02E
S11314300CC08091CA069091CB0601969093CB067E
S11314408093CA0680E001C081E0DF91CF911F91B3
S11314500F910895CF93DF930FB6F8940F92809174
S1131460C20681508093C2068091C2068111BFC01A
S11314708091D006811196C0BDC0E091E006F09144
S1131480E1060680F781E02DA489B589C685D78554
S1131490808991899D838C83C089D189868597852C
S11314A09B838A8311962D913C911297CF010C96C0
S11314B02817390731F48089918912969C938E9369
S11314C01197158A148A8C9181508C93A285B385C7
S11314D0C481D581868197819D838C83C681D78180
S11314E0848195819B838A8311968D919C91129717
S11314F09F012E5F3F4F8217930731F486819781B6
S113150012969C938E931197138612868C91815018
S11315108C9386899091CD06981710F48093CD060C
S113152090E0DC01AA0FBB1FAA0FBB1FAA0FBB1FB1
S11315308A0F9B1FDC01A650B94F11960D90BC91E8
S1131540A02DB583A48314968D919C9115979783B0
S113155086831496CD91DC9115973B832A83159647
S11315603C932E931497A689B0E0CD01880F991F60
S1131570880F991F880F991FA80FB91FA650B94F3C
S1131580B387A2878C918F5F8C939689A0911E0755
S1131590B0911F0756968C91981730F081E0809394
S11315A0C90602C0E0E0F0E08091DB06811165CF5E
S11315B0EF2B11F00E94BF06C091CA06D091CB0652
S11315C0209769F00E941009882319F081E0809324
S11315D0C9062197B9F71092CB061092CA068091DA
S11315E0C906882331F00E94E50181E003C080E050
S11315F001C080E00F900FBEDF91CF910895CF938B
S1131600DF93EC01892B49F00E94FD0860E0CE01D4
S11316100E9430080E942A0A01C080E0811102C0A1
S11316200E94E501DF91CF9108958091C20688233D
S113163021F081E08093C90608951092C906209193
S1131640CD0601C02150822F90E0FC01EE0FFF1F58
S1131650EE0FFF1FEE0FFF1FE80FF91FE650F94FC3
S11316603081332379F3AC01440F551F440F551FC8
S1131670440F551F480F591FDF010180F281E02DEF
S11316800280F381E02D1296FC93EE931197435060
S1131690594FE417F50729F442815381FD01528320
S11316A04183FC01EE0FFF1FEE0FFF1FEE0FFF1F24
S11316B08E0F9F1FFC01E650F94F0180F281E02D4F
S11316C08681978190931F0780931E072093CD06F0
S11316D00895CF93DF93EB0160911E0770911F076C
S11316E0645F7F4F0E94E90061E0CE010E943008F0
S11316F0DF91CF9108950F931F93CF93DF93FC0154
S11317008B01A181B28180911E0790911F07EC018A
S1131710BF87AE8780911E0790911F0714962D9165
S11317203C911597EC01398B288B14968D919C91E3
S1131730159720911E0730911F07245F3F4FEC013E
S11317403B832A8320911E0730911F07245F3F4F5C
S113175015963C932E931497A0911E07B0911F07E2
S11317605596FC93EE93549790819F5F9083442306
S113177011F00FEF1FEF642FC8010E943008DF91B2
S1131780CF911F910F910895CF93DF93DC011596AC
S1131790ED91FC9116970680F781E02DA489B58917
S11317A0C685D785808991899D838C83C089D18999
S11317B0868597859B838A8311968D919C91129738
S11317C09F01245F3F4F8217930731F480899189E9
S11317D012969C938E931197158A148A8C9181503A
S11317E08C938091C206811160C0A285B385C481A7
S11317F0D581868197819D838C83C681D78184819D
S113180095819B838A8311968D919C9112979F0158
S11318102E5F3F4F8217930731F48681978112968A
S11318209C938E931197138612868C9181508C937E
S113183086899091CD06981710F48093CD0690E098
S1131840DC01AA0FBB1FAA0FBB1FAA0FBB1F8A0F65
S11318509B1FDC01A650B94F11960D90BC91A02D91
S1131860B583A48314968D919C9115979783868351
S11318701496CD91DC9115973B832A8315963C935E
S11318802E931497A689B0E0CD01880F991F880F75
S1131890991F880F991FA80FB91FA650B94FB38776
S11318A0A2878C918F5F8C931CC04BED56E0DA01BC
S11318B01196CD91DC911297D787C6878C819D8133
S11318C0918B808B8C819D81DC0113963C932E93AC
S11318D012973D832C83558B448BDA018C918F5F57
S11318E08C939689E0911E07F0911F0786898917CA
S11318F020F481E08093C90601C080E0DF91CF919C
S113190008952091C806FC0120832091CE063091D1
S1131910CF06328321830895CF93DF930FB6F894D3
S11319200F924091CE065091CF06EC0129813A8165
S1131930DA01A21BB30BF881E091C806FE1741F04F
S11319404217530728F0FB011182108281E011C075
S1131950EB0128813981A217B30740F42A1B3B0B02
S1131960398328830E94810C80E003C01982188285
S113197081E00F900FBEDF91CF91089581E08093B5
S1131980C90608958091CC06882331F08091C2065F
S1131990811104C082E0089581E0089580E00895F3
S11319A0DC01E0912807F0912907808191E0811101
S11319B090E09C93911106C00580F681E02D808112
S11319C09181089580E090E00895FC01738362831F
S11319D0918780874617570790F0421B530B8485E5
S11319E0958548175907E0F4BF016E5F7F4F8091DA
S11319F02607909127070E94E90080E00895421786
S1131A00530718F46217730768F4BF016E5F7F4FC2
S1131A1080912807909129070E94E90080E00895A9
S1131A2081E0089581E00895EF92FF920F931F9350
S1131A30CF93DF93EC018B017A0108C08C859D85DF
S1131A40080F191FE889F989CE0109956C857D85F0
S1131A50600F711F9801A701CE010E94E50C81114E
S1131A60EDCFDF91CF911F910F91FF90EF900895EB
S1131A70EF92FF920F931F93CF93DF938C017B011F
S1131A80E0912807F09129070580F681E02DC681B1
S1131A90D781CE0102960E941A018A8982FF06C06C
S1131AA0A701B801CE010E94140D02C08E7F8A8B5B
S1131AB0E889F989CE010995DF91CF911F910F91A2
S1131AC0FF90EF90089509C00580F681E02D6FEF37
S1131AD07FEF808191810E94380DE0912807F09179
S1131AE0290780818111F0CF8091260790912707E3
S1131AF09093290780932807F0932707E0932607FC
S1131B0008950F931F93CF93DF938C010E940309D1
S1131B10EC018091200790912107C817D90730F470
S1131B200E94630D81E0F801808302C0F8011082F5
S1131B30D0932107C0932007CE01DF91CF911F914D
S1131B400F910895CF92DF92EF92FF921F93CF935C
S1131B50DF931F92CDB7DEB77C01162F0E94FD08DC
S1131B60CE0101960E94810D6C018981811127C0EB
S1131B7011110AC0CE14DF0438F00E942A0AB601FB
S1131B80C7010E94380D1DC0112341F0E0912607C2
S1131B90F0912707808111E0811110E0B7016C19E1
S1131BA07D09412F80912407909125070E94A20668
S1131BB00E942A0A811105C00E94E50102C00E9408
S1131BC02A0A0F90DF91CF911F91FF90EF90DF9041
S1131BD0CF900895EF92FF920F931F93CF93DF93CB
S1131BE000D000D000D0CDB7DEB77AC08981882379
S1131BF00CF476C00C811D81D8011A968D919C91AC
S1131C001B97892B21F0C80102960E941A01CE016C
S1131C1006960E94810D7C01E9818E2FEE0F990BAF
S1131C20AA0BBB0BFC013197E930F10508F058C051
S1131C30E65DFF4F0C94A513F80182898160828BC5
S1131C402A813B8164857585620F731FA701C801D2
S1131C500E94E50C882309F443C0D80152968C9164
S1131C60529782FF0DC06A817B811C968D919C9155
S1131C701D97680F791FA701C8010E94140D03C0A6
S1131C808E7FF801828BD8015096ED91FC9151978B
S1131C90C801099525C0F80182898E7F828B20C0F6
S1131CA0D80152968C915297816052968C93529798
S1131CB06A817B811D967C936E931C976E0D7F1DAC
S1131CC09701A701C8010E94E50C0AC0F8018289A6
S1131CD081FD04C0C8010E94A50302C08E7F828BCF
S1131CE040E050E0BE016F5F7F4F809124079091E8
S1131CF025070E941306811179CF26960FB6F89412
S1131D00DEBF0FBECDBFDF91CF911F910F91FF902A
S1131D10EF900895CF93DF931F92CDB7DEB7CE0136
S1131D2001960E94D00C69810E94A20D0E94EA0DC6
S1131D30F6CF0FB6F8940F9280912407909125075F
S1131D40892BE9F483E397E00E94D7008AE297E0C5
S1131D500E94D70083E397E0909329078093280794
S1131D608AE297E0909327078093260740E065E096
S1131D708AE00E94FE0490932507809324070F9025
S1131D800FBE08957F928F929F92AF92BF92CF928F
S1131D90DF92EF92FF920F931F93CF93DF934C0147
S1131DA05B01742E6901E7010E94990E9982888271
S1131DB0BD86AC86DF86CE86198B088BC70102965A
S1131DC00E94E500772019F08A8984608A8BDF916C
S1131DD0CF911F910F91FF90EF90DF90CF90BF9024
S1131DE0AF909F908F907F900895EF92FF920F9302
S1131DF00E94990E8091240790912507892B91F0D8
S1131E000F2EF2E2EF2EF7E0FF2EF02D03E020E09C
S1131E1030E045E550E06AEC70E08AE89EE00E941C
S1131E20740801C080E00F91FF90EF9008957F92B5
S1131E308F929F92AF92BF92CF92DF92EF92FF92D6
S1131E400F931F93CF93DF936C015B01742E4901B1
S1131E5083E190E00E940A03EC01009741F01A8AA2
S1131E607C019401472DB501C6010E94C20ECE012A
S1131E70DF91CF911F910F91FF90EF90DF90CF9062
S1131E80BF90AF909F908F907F9008950F931F9372
S1131E90CF93DF9300D000D01F92CDB7DEB7E0918F
S1131EA02407F0912507309771F1D90169835B8389
S1131EB04A839D838C836630ECF40E94C20C82308A
S1131EC061F420E0A801BE016F5F7F4F8091240779
S1131ED0909125070E943F0517C020E040E050E0A4
S1131EE0BE016F5F7F4F80912407909125070E9468
S1131EF03F050AC020E0AD01BE016F5F7F4FCF01F7
S1131F000E94D10501C080E00F900F900F900F90B8
S1131F100F90DF91CF911F910F910895FC01928151
S1131F20911106C040E0618180810E9430100895C3
S1131F30913029F441E0618180810E94301008953C
S1131F40FC01618180810E94F610089542E00E94A4
S1131F5030100895CF93DF9300D01F92CDB7DEB732
S1131F6067E083E00E94A60F83E0898381E08A838F
S1131F7082E08B83CE0101960E947F1181E00E9452
S1131F80C0110F900F900F90DF91CF910895CF93D0
S1131F90DF9300D01F92CDB7DEB763E081E00E94EB
S1131FA0A60F83E0898381E08A8382E08B83CE015C
S1131FB001960E943C1181E00E947D110F900F90C8
S1131FC00F90DF91CF9108950F931F930E940309FF
S1131FD000E010E020E030E0AC0162E080914707CF
S1131FE0909148070E94460F1F910F9108950F93F7
S1131FF01F930E94030900E010E020E030E0AC01F0
S113200061E080914507909146070E94460F1F9119
S11320100F9108950F931F930E94030900E010E0AD
S113202020E030E0AC0161E08091470790914807DF
S11320300E94460F0E94030920E030E0AC0161E0F9
S113204080914507909146070E94460F1F910F917A
S113205008950E9483000E948A0080E090E0089521
S1132060683008F0C2C0843008F0BFC08130B1F1DC
S113207038F0823009F460C0833009F48AC00895CE
S113208041110CC02AB381E090E002C0880F991F6F
S11320906A95E2F7809582238ABB0895413081F4E2
S11320A02AB381E090E002C0880F991F6A95E2F795
S11320B0982F909592239ABB9BB3892B8BBB089541
S11320C0423009F092C02AB381E090E002C0880F48
S11320D0991F6A95E2F7822B8ABB089541110CC0BF
S11320E027B381E090E002C0880F991F6A95E2F758
S11320F08095822387BB0895413081F427B381E022
S113210090E002C0880F991F6A95E2F7982F909586
S1132110922397BB98B3892B88BB0895423009F06A
S113212064C027B381E090E002C0880F991F6A95CC
S1132130E2F7822B87BB089541110CC024B381E0E0
S113214090E002C0880F991F6A95E2F78095822378
S113215084BB0895413081F424B381E090E002C04F
S1132160880F991F6A95E2F7982F9095922394BB54
S113217095B3892B85BB08954230B9F524B381E02A
S113218090E002C0880F991F6A95E2F7822B84BB06
S1132190089541110CC021B381E090E002C0880F82
S11321A0991F6A95E2F78095822381BB0895413097
S11321B081F421B381E090E002C0880F991F6A95F1
S11321C0E2F7982F9095922391BB92B3892B82BB0F
S11321D00895423051F421B381E090E002C0880FA9
S11321E0991F6A95E2F7822B81BB08956830B0F598
S11321F08430B0F5813089F028F08230C9F0833022
S113220011F130C089B390E002C0959587956A9525
S1132210E2F780FF29C081E0089586B390E002C010
S1132220959587956A95E2F780FF20C081E008952F
S113223083B390E002C0959587956A95E2F780FF95
S113224017C081E0089580B390E002C0959587950A
S11322506A95E2F780FF0EC081E0089580E008955A
S113226080E0089580E0089580E0089580E0089576
S113227080E0089580E00895FC018081833019F0A6
S113228083B7806883BF83B79081492F417050E042
S1132290BA01002476956795079476956795079417
S11322A0762F602D9270492F50E0440F551F440F34
S11322B0551F440F551F462B482B43BF83B79281AC
S11322C0292F217030E0A90142955295507F54275F
S11322D0407F54279270292F30E0220F331F22951C
S11322E03295307F3227207F3227242B282B23BF9F
S11322F093B78181892B83BF08958CBF0895FC0116
S11323008081833019F083B7806883BF85B590815D
S1132310492F417050E0BA010024769567950794DF
S1132320769567950794762F602D9270492F50E02B
S1132330440F551F440F551F440F551F462B482B60
S113234045BD85B59281292F217030E0A9014295C0
S11323505295507F5427407F54279270292F30E0A4
S1132360220F331F22953295307F3227207F322768
S1132370242B282B25BD95B58181892B85BD0895F6
S113238083BD08958091690090916A000E948E0F28
S113239080916700909168000E948E0F80916B007D
S11323A090916C000E948E0F809165009091660060
S11323B00E948E0F80916300909164000E948E0FA2
S11323C0089580916B0090916C000E94A00F8093FF
S11323D04B078091690090916A000E94A00F80933E
S11323E04A0780916700909168000E94A00F809333
S11323F04C0780916500909166000E94A00F809325
S1132400490780916300909164000E94A00F80931B
S11324104D0708950F931F9380913F0781119FC02B
S11324208091490781119BC080917C00823009F41E
S113243096C09091410791112BC090914A07911138
S113244027C0882309F47EC010927C0081E0809329
S11324503C0700E010E020E030E040E050E063E0C2
S113246080914707909148070E94460F20E030E092
S113247040E050E063E080914507909146070E9458
S1132480460F81E00E94C01181E00E947D115AC074
S11324909091400791112BC090914C07911127C046
S11324A0813009F44FC081E080937C0080933C0725
S11324B000E010E020E030E040E050E063E0809194
S11324C04707909148070E94460F20E030E040E023
S11324D050E063E080914507909146070E94460FC3
S11324E081E00E94C01181E00E947D112BC0909177
S11324F03E07911127C090914D07911123C083305D
S113250009F183E080937C0000E010E020E030E0FB
S113251040E050E063E080914707909148070E94B3
S1132520460F20E030E040E050E063E08091450752
S1132530909146070E94460F81E00E94C01181E0FD
S11325400E947D1180914A078093410780914C0736
S11325508093400780914D0780933E072AC0809165
S11325607C00823031F1833021F183E080937C0060
S113257081E080933C0700E010E020E030E040E0A0
S113258050E063E080914707909148070E94460F0E
S113259020E030E040E050E063E080914507909116
S11325A046070E94460F81E00E94C01181E00E940C
S11325B07D118091490780933F07809142078111E3
S11325C057C080914B07813009F052C080917C0044
S11325D0823021F182E080937C0081E080933C078B
S11325E000E010E020E030E040E050E063E0809163
S11325F04707909148070E94460F20E030E040E0F2
S113260050E063E080914507909146070E94460F91
S113261081E00E94C01181E00E947D1180913D07FC
S11326208F5F80933D078130F1F083E080937C00DD
S113263081E080933C0700E010E020E030E040E0DF
S113264050E063E080914707909148070E94460F4D
S113265020E030E040E050E063E080914507909155
S113266046070E94460F80913D07817080933D0785
S113267080914B07809342071F910F910895809199
S11326807F0090918000892B51F0809143079091B5
S11326904407892B21F40E94E1110E940A128091BF
S11326A0430790914407019660917D0070917E00EC
S11326B00E94911390934407809343070895809157
S11326C03C078130C9F410923C0780917C00813032
S11326D039F018F0823039F009C00E94E40F0895EF
S11326E00E94F70F08950E940A10089581E00E9445
S11326F0C01181E00E947D110895AA1BBB1B51E10A
S113270007C0AA1FBB1FA617B70710F0A61BB70B5D
S1132710881F991F5A95A9F780959095BC01CD0102
S1132720089597FB072E16F4009407D077FD09D07F
S11327300E947D1307FC05D03EF4909581959F4F30
S11327400895709561957F4F0895EE0FFF1F0590D2
S1132750F491E02D0994FB01DC0102C001900D927B
S10F276041505040D8F70895F894FFCF82
S113276C29320379007600730070006D00000000BC
S113277C0001010002010003010004010301000136
S113278C0043616C6C696E675F706F6C6C004361C5
S113279C6C6C696E675F73776974636843617365A6
S11327AC730052696768745F626C696E6B5F7469FD
S11327BC6D6572004C6566745F626C696E6B5F74F8
S11327CC696D65720049444C4500546D7220537612
S10527DC630094
S9030000FC
